:04002300021E0000B9
:1002CF00E4F508F5098E0A8F0BC2817F05FEFDFC50
:1002DF0012052EE4F508F509750C00E50B5401F530
:1002EF000DC281450C24FF92807F027E007D007C31
:1002FF00001204E3D2817F027E007D007C00120495
:10030F00E3E50AA2E713F50AE50B13F50B0509E57B
:10031F000970020508C39408E5086480948040B80A
:04032F00D281D28025
:0103330022A7
:03003B0002039825
:10039800C0E0C0F0C083C082C0D075D000C000C02B
:1003A80001C002C003C004C005C006C007AFECEF1F
:1003B8006480701EF5ECC290D2953097FDC295E42A
:1003C800FFFE1202CF7FF27E001202CF751E00756B
:1003D8001F1ED007D006D005D004D003D002D0010C
:0D03E800D000D0D0D082D083D0F0D0E03251
:1001DC0053B3FE43B401C29053B3DF43B420C29572
:1001EC0053B1FE43B20153B1FD43B202D280D2816E
:1001FC0043B38053B47FA2AF920075C7AA75C7559D
:10020C0075910143B38075C7AA75C755E4F591A2E2
:10021C000092AF43E90143E98043EA8053EB7F430B
:10022C009B02D2AFD3E51F9400E51E6480948040FE
:10023C0024D2907F327E007D007C00120579C29022
:10024C007F327E007D007C00120579E51F151F7042
:0A025C00D3151E80CF43870280CA2D
:1005C40053B1BF53B2BF53B17F53B27F75985043F9
:1005D4008920438780438E1053C4DFAB07AA06A942
:1005E40005A8047F407E427D0F7C0012007AEF0450
:0905F400F404F58DD28ED2992297
:100266008F198E188D178C1653B1BF53B2BF53B169
:100276007F53B27F75985043878053C4F843C42098
:10028600AB19AA18A917A8167F407E427D0F7C00DD
:1002960012007AC374FF9FFF74FF9EFEE49DFDE487
:1002A6009CFC780812011D8FC6AB19AA18A917A8BD
:1002B600167F407E427D0F7C0012007AC374FF9F3A
:0902C600FF8FC543C408D2992240
:070003003098FDAF99C2988F
:01000A0022D3
:08000B00C2998F993099FD2282
:100334008F1D8E1C8D1B8C1A53B1FB53B2FB53B310
:10034400BF53B4BF75F85075C40853C4DFAB1DAABE
:100354001CA91BA81A7F407E427D0F7C0012007AE4
:10036400C374FF9FFF74FF9EFEE49DFDE49CFC7834
:100374000812011D8FC6AB1DAA1CA91BA81A7F4019
:100384007E427D0F7C0012007AC374FF9FFF8FC5ED
:0403940043C4082234
:0700130030F8FDAF9AC2F8BE
:01001A0022C3
:08001B00C2F98F9A30F9FD22B1
:1004E3008F118E108D0F8C0E538EF7438901D28C92
:1004F300E4FFFEFDFCAB11AA10A90FA80EC3120165
:100503000C6025758A7E758CFF308DFDC28DE511DB
:1005130024FFF511E51034FFF510E50F34FFF50F57
:0B052300E50E34FFF50E80C8C28C22EC
:10052E008F118E108D0F8C0E538EF7438901D28C46
:10053E00E4FFFEFDFCAB11AA10A90FA80EC3120119
:10054E000C6025758ACA758CFA308DFDC28DE51149
:10055E0024FFF511E51034FFF510E50F34FFF50F0C
:0B056E00E50E34FFF50E80C8C28C22A1
:100579008F158E148D138C12538EEF438910D28EE2
:10058900E4FFFEFDFCAB15AA14A913A812C31201BE
:100599000C6025758BEA758DCB308FFDC28FE51503
:1005A90024FFF515E51434FFF514E51334FFF513AD
:0B05B900E51234FFF51280C8C28E224C
:100495008F248E238D228C2153C9BF53C9DF43C9B5
:1004A50010D2CAE4FFFEFDFCAB24AA23A922A82191
:1004B500C312010C602575CC3075CDF830CFFDC267
:1004C500CFE52424FFF524E52334FFF523E5223485
:0E04D500FFF522E52134FFF52180C8C2CA22BE
:1003F5008F288E278D268C2575C40743C408E4FFF6
:10040500FEFDFCAB28AA27A926A825C312010C606E
:100415002B75C52C75C6CFE5C45410641070F85300
:10042500C4EFE52824FFF528E52734FFF527E52661
:1004350034FFF526E52534FFF52580C253C4F722A0
:100445008F2C8E2B8D2A8C2975C40743C408E4FF95
:10045500FEFDFCAB2CAA2BA92AA829C312010C600E
:100465002B75C5D875C6FFE5C45410641070F853D4
:10047500C4EFE52C24FFF52CE52B34FFF52BE52AFD
:1004850034FFF52AE52934FFF52980C253C4F72244
:03000000020130CA
:1001300075C7AA75C75575FD5A75C7AA75C7557590
:10014000FDA5787FE4F6D8FD9000007FFF7E03E4F4
:0C015000F0A3DFFCDEFA75812C020197A1
:10015C000201DCE493A3F8E493A34003F68001F2DC
:10016C0008DFF48029E493A3F85407240CC8C333A4
:10017C00C4540F4420C8834004F456800146F6DF73
:10018C00E4800B0102040810204080900023E47EE0
:10019C00019360BCA3FF543F30E509541FFEE49368
:1001AC00A360010ECF54C025E060A840B8E493A32F
:1001BC00FAE493A3F8E493A3C8C582C8CAC583CA5A
:1001CC00F0A3C8C582C8CAC583CADFE9DEE780BE12
:0100270000D8
:10003E0075F008758200EF2FFFEE33FECD33CDCC79
:10004E0033CCC58233C5829BED9AEC99E5829840FC
:10005E000CF582EE9BFEED9AFDEC99FC0FD5F0D6D9
:10006E00E4CEFBE4CDFAE4CCF9A88222B800C1B903
:10007E000059BA002DEC8BF084CFCECDFCE5F0CB41
:10008E00F97818EF2FFFEE33FEED33FDEC33FCEB7A
:10009E0033FB10D703994004EB99FB0FD8E5E4F935
:1000AE00FA227818EF2FFFEE33FEED33FDEC33FC22
:1000BE00C933C910D7059BE99A4007EC9BFCE99A16
:1000CE00F90FD8E0E4C9FAE4CCFB2275F010EF2F5B
:1000DE00FFEE33FEED33FDCC33CCC833C810D7075B
:1000EE009BEC9AE899400AED9BFDEC9AFCE899F896
:0E00FE000FD5F0DAE4CDFBE4CCFAE4C8F92229
:10010C00EB9FF5F0EA9E42F0E99D42F0E89C45F049
:01011C0022C0
:10011D00E8600FECC313FCED13FDEE13FEEF13FFC0
:03012D00D8F122E4
:00000001FF
