:09000300020B0001030800000BD0
:03003B0002052794
:10052700C0E0C0F0C083C082C0D075D000C001C099
:1005370002C003C007AFECEF64807012F5ECD295F0
:10054700C295AB08AA09A90A75F001120069D0077C
:10055700D003D002D001D0D0D082D083D0F0D0E069
:010567003261
:10028F0053B3FE43B401C29053B3DF43B420C295BE
:10029F0043B38053B47FA2AF920075C7AA75C755F9
:1002AF0075910143B38075C7AA75C755E4F591A23F
:1002BF000092AF43E90143E98043EA8053EB7F4368
:1002CF009B02D2AF438702AB08AA09A90A12003ECC
:1002DF0045F060F0D2907FB87E0B7D007C00120459
:0502EF0091C29080E2C5
:1005680053B1BF53B2BF53B17F53B27F7598504355
:100578008920438780438E1053C4DFAB07AA06A99E
:1005880005A8047F407E427D0F7C001200C4EF0462
:09059800F404F58DD28ED29922F3
:100226008F108E0F8D0E8C0D53B1BF53B2BF53B1CD
:100236007F53B27F75985043878053C4F843C420D8
:10024600AB10AA0FA90EA80D7F407E427D0F7C0041
:100256001200C4C374FF9FFF74FF9EFEE49DFDE47D
:100266009CFC78081201678FC6AB10AA0FA90EA8CE
:100276000D7F407E427D0F7C001200C4C374FF9F39
:09028600FF8FC543C408D2992280
:07000D003098FDAF99C29885
:0100140022C9
:08001500C2998F993099FD2278
:1002F4008F148E138D128C1153B1FB53B2FB53B375
:10030400BF53B4BF75F85075C40853C4DFAB14AA07
:1003140013A912A8117F407E427D0F7C001200C4F5
:10032400C374FF9FFF74FF9EFEE49DFDE49CFC7874
:10033400081201678FC6AB14AA13A912A8117F4033
:100344007E427D0F7C001200C4C374FF9FFF8FC5E3
:0403540043C4082274
:07001D0030F8FDAF9AC2F8B4
:0100240022B9
:08002500C2F98F9A30F9FD22A7
:100446008F188E178D168C15538EF7438901D28C13
:10045600E4FFFEFDFCAB18AA17A916A815C31201E6
:10046600566025758A7E758CFF308DFDC28DE51828
:1004760024FFF518E51734FFF517E51634FFF516D2
:0B048600E51534FFF51580C8C28C227C
:100491008F308E2F8D2E8C2D538EF7438901D28C68
:1004A100E4FFFEFDFCAB30AA2FA92EA82DC312013B
:1004B100566025758ACA758CFA308DFDC28DE5307E
:1004C10024FFF530E52F34FFF52FE52E34FFF52E0F
:0B04D100E52D34FFF52D80C8C28C2201
:1004DC008F1C8E1B8D1A8C19538EEF438910D28E64
:1004EC00E4FFFEFDFCAB1CAA1BA91AA819C3120140
:1004FC00566025758BEA758DCB308FFDC28FE51C50
:10050C0024FFF51CE51B34FFF51BE51A34FFF51A27
:0B051C00E51934FFF51980C8C28E22DB
:1003F8008F248E238D228C2153C9BF53C9DF43C953
:1004080010D2CAE4FFFEFDFCAB24AA23A922A8212E
:10041800C3120156602575CC3075CDF830CFFDC2BA
:10042800CFE52424FFF524E52334FFF523E5223422
:0E043800FFF522E52134FFF52180C8C2CA225B
:100358008F288E278D268C2575C40743C408E4FF93
:10036800FEFDFCAB28AA27A926A825C312015660C2
:100378002B75C52C75C6CFE5C45410641070F8539E
:10038800C4EFE52824FFF528E52734FFF527E526FF
:1003980034FFF526E52534FFF52580C253C4F7223E
:1003A8008F2C8E2B8D2A8C2975C40743C408E4FF33
:1003B800FEFDFCAB2CAA2BA92AA829C31201566062
:1003C8002B75C5D875C6FFE5C45410641070F85372
:1003D800C4EFE52C24FFF52CE52B34FFF52BE52A9B
:1003E80034FFF52AE52934FFF52980C253C4F722E2
:0300000002017A80
:10017A0075C7AA75C75575FD5A75C7AA75C7557546
:10018A00FDA5787FE4F6D8FD9000007FFF7E03E4AA
:0C019A00F0A3DFFCDEFA7581300201E109
:1001A60002028FE493A3F8E493A34003F68001F2DE
:1001B60008DFF48029E493A3F85407240CC8C3335A
:1001C600C4540F4420C8834004F456800146F6DF29
:1001D600E4800B0102040810204080900003E47EB6
:1001E600019360BCA3FF543F30E509541FFEE4931E
:1001F600A360010ECF54C025E060A840B8E493A3E5
:10020600FAE493A3F8E493A3C8C582C8CAC583CA0F
:10021600F0A3C8C582C8CAC583CADFE9DEE780BEC7
:01000C0000F3
:10003E00BB010A89828A83E0F5F0A3E0225006878D
:10004E00F009E71922BBFE07E3F5F009E31922894F
:0B005E00828A83E493F5F07401932282
:10006900BB010A89828A83F0E5F0A3F0225006F7E2
:0F00790009A7F01922BBFE06F3E5F009F31922DF
:1000880075F008758200EF2FFFEE33FECD33CDCC2F
:1000980033CCC58233C5829BED9AEC99E5829840B2
:1000A8000CF582EE9BFEED9AFDEC99FC0FD5F0D68F
:1000B800E4CEFBE4CDFAE4CCF9A88222B800C1B9B9
:1000C8000059BA002DEC8BF084CFCECDFCE5F0CBF7
:1000D800F97818EF2FFFEE33FEED33FDEC33FCEB30
:1000E80033FB10D703994004EB99FB0FD8E5E4F9EB
:1000F800FA227818EF2FFFEE33FEED33FDEC33FCD8
:10010800C933C910D7059BE99A4007EC9BFCE99ACB
:10011800F90FD8E0E4C9FAE4CCFB2275F010EF2F10
:10012800FFEE33FEED33FDCC33CCC833C810D70710
:100138009BEC9AE899400AED9BFDEC9AFCE899F84B
:0E0148000FD5F0DAE4CDFBE4CCFAE4C8F922DE
:10015600EB9FF5F0EA9E42F0E99D42F0E89C45F0FF
:010166002276
:10016700E8600FECC313FCED13FDEE13FEEF13FF76
:03017700D8F1229A
:00000001FF
