:0C00190002140000021600000212000198
:1003DB00E4F508F5098E0A8F0BC2817F05FEFDFC43
:1003EB001205DDE4F508F509750C00E50B5401F574
:1003FB000DC281450C24FF92807F047E007D007C22
:10040B0000120592D2817F047E007D007C001205D4
:10041B0092E50AA2E713F50AE50B13F50B0509E5BF
:10042B000970020508C39408E5086480948040B8FD
:04043B00D281D28018
:01043F00229A
:03003B00020003BD
:1000030075EC0075120075130175140075150675EE
:06001300160075171E32F5
:10003E0053B3FE43B401C29053B3DF43B420C29511
:10004E0053B1FE43B20153B1FD43B202D280D2810D
:10005E0043B18053B27FA2AF920075C7AA75C75540
:10006E0075910143B18075C7AA75C755E4F591A284
:10007E000092AF53E9FB43E98053EA7F43EB8043A1
:10008E009B02D2AFA2AF9200C2AF75C7AA75C75579
:10009E0053A37FA20092AF7FC8FEFDFC1205DD7553
:1000AE00160075171E75140075150630870875161F
:1000BE000075171E802FD2907FC87E007D007C00B9
:1000CE001205DDC2907F2C7E017D007C001205DDC5
:1000DE00E515151570021514D3E5159400E5146495
:1000EE0080948050C6E515451470030201C7D3E510
:1000FE00139400E5126480948050030201CE308781
:10010E00ED7F017E007D007C001205DD3087DF7FF4
:10011E00047E001203DB7F057E007D007C0012054D
:10012E00DD7FF27E001203DBD3E5179400E5166443
:10013E00809480403620870F7FFE7E001203DB7591
:10014E0014007515068024D2957FF47E017D007C07
:10015E00001205DDC2957FF47E017D007C00120544
:10016E00DDE517151770C1151680BD7FFE7E0012D6
:10017E0003DBE51745166040D3E5159400E51464DE
:10018E0080948050030200FC3087097512007513AD
:10019E00010200FCD2907FC87E007D007C0012051B
:1001AE00DDC2907F2C7E017D007C001205DDE51501
:1001BE00151570C4151480C0E4F512F5130200FC79
:0601CE004387020200ADB0
:1006730053B1BF53B2BF53B17F53B27F7598504349
:100683008920438780438E1053C4DFAB07AA06A992
:1006930005A8047F407E427D0F7C00120210EF0408
:0906A300F404F58DD28ED29922E7
:100372008F1B8E1A8D198C1853B1BF53B2BF53B154
:100382007F53B27F75985043878053C4F843C4208B
:10039200AB1BAA1AA919A8187F407E427D0F7C00C8
:1003A200120210C374FF9FFF74FF9EFEE49DFDE4E2
:1003B2009CFC78081202B38FC6AB1BAA1AA919A813
:1003C200187F407E427D0F7C00120210C374FF9F93
:0903D200FF8FC543C408D2992233
:070026003098FDAF99C2986C
:01002D0022B0
:08002E00C2998F993099FD225F
:100440008F1F8E1E8D1D8C1C53B1FB53B2FB53B3FB
:10045000BF53B4BF75F85075C40853C4DFAB1FAAAF
:100460001EA91DA81C7F407E427D0F7C0012021039
:10047000C374FF9FFF74FF9EFEE49DFDE49CFC7827
:10048000081202B38FC6AB1FAA1EA91DA81C7F406D
:100490007E427D0F7C00120210C374FF9FFF8FC548
:0404A00043C4082227
:0706AC0030F8FDAF9AC2F81F
:0106B3002224
:0806B400C2F98F9A30F9FD2212
:100592008F118E108D0F8C0E538EF7438901D28CE2
:1005A200E4FFFEFDFCAB11AA10A90FA80EC31202B4
:1005B200A26025758A7E758CFF308DFDC28DE51196
:1005C20024FFF511E51034FFF510E50F34FFF50FA8
:0B05D200E50E34FFF50E80C8C28C223D
:1005DD008F118E108D0F8C0E538EF7438901D28C97
:1005ED00E4FFFEFDFCAB11AA10A90FA80EC3120269
:1005FD00A26025758ACA758CFA308DFDC28DE51104
:10060D0024FFF511E51034FFF510E50F34FFF50F5C
:0B061D00E50E34FFF50E80C8C28C22F1
:100628008F248E238D228C21538EEF438910D28EF6
:10063800E4FFFEFDFCAB24AA23A922A821C31202D1
:10064800A26025758BEA758DCB308FFDC28FE524AE
:1006580024FFF524E52334FFF523E52234FFF522B2
:0B066800E52134FFF52180C8C28E227E
:100544008F288E278D268C2553C9BF53C9DF43C9F5
:1005540010D2CAE4FFFEFDFCAB28AA27A926A825D1
:10056400C31202A2602575CC3075CDF830CFFDC220
:10057400CFE52824FFF528E52734FFF527E52634C1
:0E058400FFF526E52534FFF52580C8C2CA2202
:1004A4008F2C8E2B8D2A8C2975C40743C408E4FF36
:1004B400FEFDFCAB2CAA2BA92AA829C31202A26018
:1004C4002B75C52C75C6CFE5C45410641070F85351
:1004D400C4EFE52C24FFF52CE52B34FFF52BE52A9E
:1004E40034FFF52AE52934FFF52980C253C4F722E5
:1004F4008F308E2F8D2E8C2D75C40743C408E4FFD6
:10050400FEFDFCAB30AA2FA92EA82DC31202A260B7
:100514002B75C5D875C6FFE5C45410641070F85324
:10052400C4EFE53024FFF530E52F34FFF52FE52E39
:1005340034FFF52EE52D34FFF52D80C253C4F72288
:030000000202C633
:1002C60075C7AA75C75575FD5A75C7AA75C75575F9
:1002D600FDA5787FE4F6D8FD9000007FFF7E03E45D
:0C02E600F0A3DFFCDEFA75813002032D6E
:1002F20002003EE493A3F8E493A34003F68001F2E4
:1003020008DFF48029E493A3F85407240CC8C3330C
:10031200C4540F4420C8834004F456800146F6DFDB
:10032200E4800B0102040810204080900019E47E52
:10033200019360BCA3FF543F30E509541FFEE493D0
:10034200A360010ECF54C025E060A840B8E493A397
:10035200FAE493A3F8E493A3C8C582C8CAC583CAC2
:10036200F0A3C8C582C8CAC583CADFE9DEE780BE7A
:0100250000DA
:1001D40075F008758200EF2FFFEE33FECD33CDCCE2
:1001E40033CCC58233C5829BED9AEC99E582984065
:1001F4000CF582EE9BFEED9AFDEC99FC0FD5F0D642
:10020400E4CEFBE4CDFAE4CCF9A88222B800C1B96B
:100214000059BA002DEC8BF084CFCECDFCE5F0CBA9
:10022400F97818EF2FFFEE33FEED33FDEC33FCEBE2
:1002340033FB10D703994004EB99FB0FD8E5E4F99D
:10024400FA227818EF2FFFEE33FEED33FDEC33FC8A
:10025400C933C910D7059BE99A4007EC9BFCE99A7E
:10026400F90FD8E0E4C9FAE4CCFB2275F010EF2FC3
:10027400FFEE33FEED33FDCC33CCC833C810D707C3
:100284009BEC9AE899400AED9BFDEC9AFCE899F8FE
:0E0294000FD5F0DAE4CDFBE4CCFAE4C8F92291
:1002A200EB9FF5F0EA9E42F0E99D42F0E89C45F0B2
:0102B2002229
:1002B300E8600FECC313FCED13FDEE13FEEF13FF29
:0302C300D8F1224D
:00000001FF
