:080003000212000002140000CB
:10035A00E4F508F5098E0A8F0BC2817F05FEFDFCC4
:10036A001205ACE4F508F509750C00E50B5401F526
:10037A000DC281450C24FF92807F047E007D007CA3
:10038A0000120561D2817F047E007D007C00120587
:10039A0061E50AA2E713F50AE50B13F50B0509E572
:1003AA000970020508C39408E5086480948040B87F
:0403BA00D281D2809A
:0103BE00221C
:1004230053B3FE43B401C29053B3DF43B420C29528
:1004330053B1FE43B20153B1FD43B202D280D28124
:1004430043B38053B47FA2AF920075C7AA75C75553
:1004530075910143B38075C7AA75C755E4F591A299
:100463000092AF43E90143E98053EA7F43EB8022E3
:03003B0002002C94
:04002C0075EC00323D
:10003E001204237FC87E007D007C001205AC439B1A
:10004E0002D2AFA2AF9200C2AF75C7AA75C7555301
:10005E00A37FA20092AF2097030201117F057E00BD
:10006E007D007C001205AC20970302014DC290C2A8
:10007E009575140075151E7F047E0012035A7F0AB3
:10008E007E007D007C001205AC7FF27E0012035ACA
:10009E00D3E5159400E51464809480500302014D5D
:1000AE00309724D2957FF47E017D007C001205AC42
:1000BE00C2957FF47E017D007C001205ACE515151E
:1000CE001570CD151480C97FFE7E0012035A75126D
:1000DE0000751306D2907FC87E007D007C0012054D
:1000EE00ACC2907F2C7E017D007C001205ACE51326
:1000FE00151370021512E513451270D8E4F514F5B8
:10010E0015808D7F057E007D007C001205AC20974A
:10011E002E751200751306D2907FC87E007D007C6E
:10012E00001205ACC2907F2C7E017D007C00120572
:10013E00ACE513151370021512E513451270D84372
:05014E008702020064BD
:1006420053B1BF53B2BF53B17F53B27F759850437A
:100652008920438780438E1053C4DFAB07AA06A9C3
:1006620005A8047F407E427D0F7C0012018FEF04BB
:09067200F404F58DD28ED2992218
:1002F1008F198E188D178C1653B1BF53B2BF53B1DE
:100301007F53B27F75985043878053C4F843C4200C
:10031100AB19AA18A917A8167F407E427D0F7C0051
:1003210012018FC374FF9FFF74FF9EFEE49DFDE4E5
:100331009CFC78081202328FC6AB19AA18A917A81B
:10034100167F407E427D0F7C0012018FC374FF9F98
:09035100FF8FC543C408D29922B4
:07000C003098FDAF99C29886
:0100130022CA
:08001400C2998F993099FD2279
:1003BF008F1D8E1C8D1B8C1A53B1FB53B2FB53B385
:1003CF00BF53B4BF75F85075C40853C4DFAB1DAA33
:1003DF001CA91BA81A7F407E427D0F7C0012018F43
:1003EF00C374FF9FFF74FF9EFEE49DFDE49CFC78A9
:1003FF00081202328FC6AB1DAA1CA91BA81A7F4078
:10040F007E427D0F7C0012018FC374FF9FFF8FC54B
:04041F0043C40822A8
:07001C0030F8FDAF9AC2F8B5
:0100230022BA
:08002400C2F98F9A30F9FD22A8
:100561008F118E108D0F8C0E538EF7438901D28C13
:10057100E4FFFEFDFCAB11AA10A90FA80EC31202E5
:10058100216025758A7E758CFF308DFDC28DE51148
:1005910024FFF511E51034FFF510E50F34FFF50FD9
:0B05A100E50E34FFF50E80C8C28C226E
:1005AC008F118E108D0F8C0E538EF7438901D28CC8
:1005BC00E4FFFEFDFCAB11AA10A90FA80EC312029A
:1005CC00216025758ACA758CFA308DFDC28DE511B6
:1005DC0024FFF511E51034FFF510E50F34FFF50F8E
:0B05EC00E50E34FFF50E80C8C28C2223
:1005F7008F248E238D228C21538EEF438910D28E28
:10060700E4FFFEFDFCAB24AA23A922A821C3120202
:10061700216025758BEA758DCB308FFDC28FE52460
:1006270024FFF524E52334FFF523E52234FFF522E3
:0B063700E52134FFF52180C8C28E22AF
:100513008F288E278D268C2553C9BF53C9DF43C926
:1005230010D2CAE4FFFEFDFCAB28AA27A926A82502
:10053300C3120221602575CC3075CDF830CFFDC2D2
:10054300CFE52824FFF528E52734FFF527E52634F2
:0E055300FFF526E52534FFF52580C8C2CA2233
:100473008F2C8E2B8D2A8C2975C40743C408E4FF67
:10048300FEFDFCAB2CAA2BA92AA829C312022160CA
:100493002B75C52C75C6CFE5C45410641070F85382
:1004A300C4EFE52C24FFF52CE52B34FFF52BE52ACF
:1004B30034FFF52AE52934FFF52980C253C4F72216
:1004C3008F308E2F8D2E8C2D75C40743C408E4FF07
:1004D300FEFDFCAB30AA2FA92EA82DC3120221606A
:1004E3002B75C5D875C6FFE5C45410641070F85356
:1004F300C4EFE53024FFF530E52F34FFF52FE52E6B
:1005030034FFF52EE52D34FFF52D80C253C4F722B9
:03000000020245B4
:1002450075C7AA75C75575FD5A75C7AA75C755757A
:10025500FDA5787FE4F6D8FD9000007FFF7E03E4DE
:0C026500F0A3DFFCDEFA7581300202AC71
:1002710002003EE493A3F8E493A34003F68001F265
:1002810008DFF48029E493A3F85407240CC8C3338E
:10029100C4540F4420C8834004F456800146F6DF5D
:1002A100E4800B0102040810204080900003E47EEA
:1002B100019360BCA3FF543F30E509541FFEE49352
:1002C100A360010ECF54C025E060A840B8E493A319
:1002D100FAE493A3F8E493A3C8C582C8CAC583CA44
:1002E100F0A3C8C582C8CAC583CADFE9DEE780BEFC
:01000B0000F4
:1001530075F008758200EF2FFFEE33FECD33CDCC63
:1001630033CCC58233C5829BED9AEC99E5829840E6
:100173000CF582EE9BFEED9AFDEC99FC0FD5F0D6C3
:10018300E4CEFBE4CDFAE4CCF9A88222B800C1B9ED
:100193000059BA002DEC8BF084CFCECDFCE5F0CB2B
:1001A300F97818EF2FFFEE33FEED33FDEC33FCEB64
:1001B30033FB10D703994004EB99FB0FD8E5E4F91F
:1001C300FA227818EF2FFFEE33FEED33FDEC33FC0C
:1001D300C933C910D7059BE99A4007EC9BFCE99A00
:1001E300F90FD8E0E4C9FAE4CCFB2275F010EF2F45
:1001F300FFEE33FEED33FDCC33CCC833C810D70745
:100203009BEC9AE899400AED9BFDEC9AFCE899F87F
:0E0213000FD5F0DAE4CDFBE4CCFAE4C8F92212
:10022100EB9FF5F0EA9E42F0E99D42F0E89C45F033
:0102310022AA
:10023200E8600FECC313FCED13FDEE13FEEF13FFAA
:03024200D8F122CE
:00000001FF
