:09000300021900000316000019A7
:10036C00E4F508F5098E0A8F0BC2817F05FEFDFCB2
:10037C0012056EE4F508F509750C00E50B5401F552
:10038C000DC281450C24FF92807F027E007D007C93
:10039C0000120523D2817F027E007D007C001205B5
:1003AC0023E50AA2E713F50AE50B13F50B0509E59E
:1003BC000970020508C39408E5086480948040B86D
:0403CC00D281D28088
:0103D000220A
:03003B00020304B9
:10030400C0E0C0F0C083C082C0D075D000C000C0BF
:1003140001C002C003C004C005C006C007AFECEFB3
:1003240064807029F5ECD295FFFE12036CE4FFFEA5
:1003340012036C7F2C7E017D007C0012056EC29539
:10034400AB16AA17A918E475F001120069D007D0FA
:1003540006D005D004D003D002D001D000D0D0D034
:0803640082D083D0F0D0E0321A
:1002260053B3FE43B401C29053B3DF43B420C29527
:1002360053B1FE43B20153B1FD43B202D280D28123
:1002460043B38053B47FA2AF920075C7AA75C75552
:1002560075910143B38075C7AA75C755E4F591A298
:100266000092AF43E90143E98043EA8053EB7F43C1
:100276009B02D2AF438702AB16AA17A91812003EFB
:1002860045F060F0D2907FB87E0B7D007C001205B1
:050296006EC29080E241
:1006040053B1BF53B2BF53B17F53B27F75985043B8
:100614008920438780438E1053C4DFAB07AA06A901
:1006240005A8047F407E427D0F7C001200C4EF04C5
:09063400F404F58DD28ED2992256
:10029B008F1E8E1D8D1C8C1B53B1BF53B2BF53B120
:1002AB007F53B27F75985043878053C4F843C42063
:1002BB00AB1EAA1DA91CA81B7F407E427D0F7C0094
:1002CB001200C4C374FF9FFF74FF9EFEE49DFDE408
:1002DB009CFC78081201678FC6AB1EAA1DA91CA82F
:1002EB001B7F407E427D0F7C001200C4C374FF9FB6
:0902FB00FF8FC543C408D299220B
:07000D003098FDAF99C29885
:0100140022C9
:08001500C2998F993099FD2278
:1003D1008F248E238D228C2153B1FB53B2FB53B357
:1003E100BF53B4BF75F85075C40853C4DFAB24AA1A
:1003F10023A922A8217F407E427D0F7C001200C4E8
:10040100C374FF9FFF74FF9EFEE49DFDE49CFC7896
:10041100081201678FC6AB24AA23A922A8217F4015
:100421007E427D0F7C001200C4C374FF9FFF8FC505
:0404310043C4082296
:07001D0030F8FDAF9AC2F8B4
:0100240022B9
:08002500C2F98F9A30F9FD22A7
:100523008F118E108D0F8C0E538EF7438901D28C51
:10053300E4FFFEFDFCAB11AA10A90FA80EC3120124
:10054300566025758A7E758CFF308DFDC28DE51151
:1005530024FFF511E51034FFF510E50F34FFF50F17
:0B056300E50E34FFF50E80C8C28C22AC
:10056E008F158E148D138C12538EF7438901D28CF6
:10057E00E4FFFEFDFCAB15AA14A913A812C31201C9
:10058E00566025758ACA758CFA308DFDC28DE515BB
:10059E0024FFF515E51434FFF514E51334FFF513B8
:0B05AE00E51234FFF51280C8C28C2259
:1005B9008F288E278D268C25538EEF438910D28E56
:1005C900E4FFFEFDFCAB28AA27A926A825C3120132
:1005D900566025758BEA758DCB308FFDC28FE52866
:1005E90024FFF528E52734FFF527E52634FFF5260E
:0B05F900E52534FFF52580C8C28E22E6
:1004D5008F2C8E2B8D2A8C2953C9BF53C9DF43C955
:1004E50010D2CAE4FFFEFDFCAB2CAA2BA92AA82931
:1004F500C3120156602575CC3075CDF830CFFDC2DD
:10050500CFE52C24FFF52CE52B34FFF52BE52A341C
:0E051500FFF52AE52934FFF52980C8C2CA2265
:100435008F308E2F8D2E8C2D75C40743C408E4FF95
:10044500FEFDFCAB30AA2FA92EA82DC312015660C4
:100455002B75C52C75C6CFE5C45410641070F853C0
:10046500C4EFE53024FFF530E52F34FFF52FE52EF9
:1004750034FFF52EE52D34FFF52D80C253C4F72248
:100485008F348E338D328C3175C40743C408E4FF35
:10049500FEFDFCAB34AA33A932A831C31201566064
:1004A5002B75C5D875C6FFE5C45410641070F85394
:1004B500C4EFE53424FFF534E53334FFF533E53295
:1004C50034FFF532E53134FFF53180C253C4F722EC
:0300000002017A80
:10017A0075C7AA75C75575FD5A75C7AA75C7557546
:10018A00FDA5787FE4F6D8FD9000007FFF7E03E4AA
:0C019A00F0A3DFFCDEFA7581340201E105
:1001A600020226E493A3F8E493A34003F68001F247
:1001B60008DFF48029E493A3F85407240CC8C3335A
:1001C600C4540F4420C8834004F456800146F6DF29
:1001D600E4800B0102040810204080900003E47EB6
:1001E600019360BCA3FF543F30E509541FFEE4931E
:1001F600A360010ECF54C025E060A840B8E493A3E5
:10020600FAE493A3F8E493A3C8C582C8CAC583CA0F
:10021600F0A3C8C582C8CAC583CADFE9DEE780BEC7
:01000C0000F3
:10003E00BB010A89828A83E0F5F0A3E0225006878D
:10004E00F009E71922BBFE07E3F5F009E31922894F
:0B005E00828A83E493F5F07401932282
:10006900BB010A89828A83F0E5F0A3F0225006F7E2
:0F00790009A7F01922BBFE06F3E5F009F31922DF
:1000880075F008758200EF2FFFEE33FECD33CDCC2F
:1000980033CCC58233C5829BED9AEC99E5829840B2
:1000A8000CF582EE9BFEED9AFDEC99FC0FD5F0D68F
:1000B800E4CEFBE4CDFAE4CCF9A88222B800C1B9B9
:1000C8000059BA002DEC8BF084CFCECDFCE5F0CBF7
:1000D800F97818EF2FFFEE33FEED33FDEC33FCEB30
:1000E80033FB10D703994004EB99FB0FD8E5E4F9EB
:1000F800FA227818EF2FFFEE33FEED33FDEC33FCD8
:10010800C933C910D7059BE99A4007EC9BFCE99ACB
:10011800F90FD8E0E4C9FAE4CCFB2275F010EF2F10
:10012800FFEE33FEED33FDCC33CCC833C810D70710
:100138009BEC9AE899400AED9BFDEC9AFCE899F84B
:0E0148000FD5F0DAE4CDFBE4CCFAE4C8F922DE
:10015600EB9FF5F0EA9E42F0E99D42F0E89C45F0FF
:010166002276
:10016700E8600FECC313FCED13FDEE13FEEF13FF76
:03017700D8F1229A
:00000001FF
