:10022C00E4F508F5098E0A8F0BC2817F05FEFDFCF3
:10023C0012047EE4F508F509750C00E50B5401F584
:10024C000DC281450C24FF92807F027E007D007CD4
:10025C0000120433D2817F027E007D007C001204E8
:10026C0033E50AA2E713F50AE50B13F50B0509E5CF
:10027C000970020508C39408E5086480948040B8AE
:04028C00D281D280C9
:01029000224B
:03003B000202F5C9
:1002F500C0E0C0F0C083C082C0D075D000C000C0CF
:1003050001C002C003C004C005C006C007AFECEFC2
:1003150064807011F5ECC290D2953097FDC295E4DA
:10032500FFFE12022CD007D006D005D004D003D092
:1003350002D001D000D0D0D082D083D0F0D0E0322E
:1001300053B3FE43B401C29053B3DF43B420C2951E
:1001400053B1FE43B20153B1FD43B202D280D2811A
:1001500043B38053B47FA2AF920075C7AA75C75549
:1001600075910143B38075C7AA75C755E4F591A28F
:100170000092AF43E90143E98043EA8053EB7F43B8
:100180009B02D2AF438702E4F512F513D2907F327F
:100190007E007D007C001204C9C2907F327E007D0B
:1001A000007C001204C90513E51370020512051343
:1001B000E51370020512C3941EE51264809480401A
:0301C000CB80C130
:1005140053B1BF53B2BF53B17F53B27F75985043A9
:100524008920438780438E1053C4DFAB07AA06A9F2
:1005340005A8047F407E427D0F7C0012007AEF0400
:09054400F404F58DD28ED2992247
:1001C3008F1B8E1A8D198C1853B1BF53B2BF53B105
:1001D3007F53B27F75985043878053C4F843C4203C
:1001E300AB1BAA1AA919A8187F407E427D0F7C0079
:1001F30012007AC374FF9FFF74FF9EFEE49DFDE42B
:100203009CFC780812011D8FC6AB1BAA1AA919A85A
:10021300187F407E427D0F7C0012007AC374FF9FDB
:09022300FF8FC543C408D29922E3
:07002F003098FDAF99C29863
:0100360022A7
:08054D00C2998F993099FD223B
:100291008F1F8E1E8D1D8C1C53B1FB53B2FB53B3AC
:1002A100BF53B4BF75F85075C40853C4DFAB1FAA60
:1002B1001EA91DA81C7F407E427D0F7C0012007A82
:1002C100C374FF9FFF74FF9EFEE49DFDE49CFC78D8
:1002D1000812011D8FC6AB1FAA1EA91DA81C7F40B5
:1002E1007E427D0F7C0012007AC374FF9FFF8FC591
:0402F10043C40822D8
:0705550030F8FDAF9AC2F877
:01055C00227C
:08055D00C2F98F9A30F9FD226A
:100433008F118E108D0F8C0E538EF7438901D28C42
:10044300E4FFFEFDFCAB11AA10A90FA80EC3120115
:100453000C6025758A7E758CFF308DFDC28DE5118C
:1004630024FFF511E51034FFF510E50F34FFF50F08
:0B047300E50E34FFF50E80C8C28C229D
:10047E008F118E108D0F8C0E538EF7438901D28CF7
:10048E00E4FFFEFDFCAB11AA10A90FA80EC31201CA
:10049E000C6025758ACA758CFA308DFDC28DE511FA
:1004AE0024FFF511E51034FFF510E50F34FFF50FBD
:0B04BE00E50E34FFF50E80C8C28C2252
:1004C9008F178E168D158C14538EEF438910D28E8B
:1004D900E4FFFEFDFCAB17AA16A915A814C3120167
:1004E9000C6025758BEA758DCB308FFDC28FE517B2
:1004F90024FFF517E51634FFF516E51534FFF51554
:0B050900E51434FFF51480C8C28E22F8
:1003E5008F248E238D228C2153C9BF53C9DF43C966
:1003F50010D2CAE4FFFEFDFCAB24AA23A922A82142
:10040500C312010C602575CC3075CDF830CFFDC217
:10041500CFE52424FFF524E52334FFF523E5223435
:0E042500FFF522E52134FFF52180C8C2CA226E
:100345008F288E278D268C2575C40743C408E4FFA6
:10035500FEFDFCAB28AA27A926A825C312010C601F
:100365002B75C52C75C6CFE5C45410641070F853B1
:10037500C4EFE52824FFF528E52734FFF527E52612
:1003850034FFF526E52534FFF52580C253C4F72251
:100395008F2C8E2B8D2A8C2975C40743C408E4FF46
:1003A500FEFDFCAB2CAA2BA92AA829C312010C60BF
:1003B5002B75C5D875C6FFE5C45410641070F85385
:1003C500C4EFE52C24FFF52CE52B34FFF52BE52AAE
:1003D50034FFF52AE52934FFF52980C253C4F722F5
:03000000020003F8
:1000030075C7AA75C75575FD5A75C7AA75C75575BE
:10001300FDA5787FE4F6D8FD9000007FFF7E03E422
:0C002300F0A3DFFCDEFA75812C02013036
:10003E0075F008758200EF2FFFEE33FECD33CDCC79
:10004E0033CCC58233C5829BED9AEC99E5829840FC
:10005E000CF582EE9BFEED9AFDEC99FC0FD5F0D6D9
:10006E00E4CEFBE4CDFAE4CCF9A88222B800C1B903
:10007E000059BA002DEC8BF084CFCECDFCE5F0CB41
:10008E00F97818EF2FFFEE33FEED33FDEC33FCEB7A
:10009E0033FB10D703994004EB99FB0FD8E5E4F935
:1000AE00FA227818EF2FFFEE33FEED33FDEC33FC22
:1000BE00C933C910D7059BE99A4007EC9BFCE99A16
:1000CE00F90FD8E0E4C9FAE4CCFB2275F010EF2F5B
:1000DE00FFEE33FEED33FDCC33CCC833C810D7075B
:1000EE009BEC9AE899400AED9BFDEC9AFCE899F896
:0E00FE000FD5F0DAE4CDFBE4CCFAE4C8F92229
:10010C00EB9FF5F0EA9E42F0E99D42F0E89C45F049
:01011C0022C0
:10011D00E8600FECC313FCED13FDEE13FEEF13FFC0
:03012D00D8F122E4
:00000001FF
