:0F06F100758A00758C00D28C43B71075A89222C1
:10000E00759852438922438780438E1053C4DF75FF
:05001E008DE6D28E22E8
:1006B300750F00E50FC394405019C299AF0F7440F2
:1006C3002FF582E43400F583E0FF8F993099FD051F
:0406D3000F80E02292
:03002300020607CB
:10060700C0E0C083C082C0D075D000C00730981347
:10061700AF16051674002FF582E43400F583E599CB
:10062700F0C298309902C299E516B40105C2027565
:100637000A5AE516B4400AD204750A00C2027516B2
:0C06470000D007D0D0D082D083D0E032A9
:03000B0002068C5E
:10068C00C0E0E50945086010E50915097002150878
:10069C00E50945087002D201E50A6008150AE50A69
:0706AC007002D202D0E0321F
:10057A00A2AF9200C2AF75C7AA75C755439F01A221
:10058A000092AF75AF0C75A60075A70075C7AA755E
:10059A00C75543A40185AE2275A60175C7AA75C7BA
:1005AA005543A40185AE2175AFC075A60075A70095
:1005BA0075C7AA75C75543A40185AE2375A60175EB
:1005CA00C7AA75C75543A40185AE2475A60275C787
:1005DA00AA75C75543A40185AE2575A60475C7AA91
:1005EA0075C75543A40185AE26A2AF9200C2AF7566
:0D05FA00C7AA75C755539FFEA20092AF22FD
:1004D900750E00750D00750C00750B00750F00E5A4
:1004E9000FC39440502AAF0F74002FF582E43400F3
:1004F900F583E0FFE4FCFDFEE50E2FF50EE50D3E6C
:10050900F50DE50C3DF50CE50B3CF50B050F80CF22
:10051900E50E54FFFFE50D5400FEE50C5400FDE522
:100529000B5400FC900040EFF0AF0EAE0DAD0CACDB
:100539000B7808120653EF54FFFFEE5400FEED54FA
:1005490000FDEC5400FC900041EFF0900004E0FF46
:10055900EF04FF900044EFF0900005E0FF900045A4
:10056900EFF0900044E0FFEF7006900045E004F0E2
:01057900225F
:1000260075B10075B20075B30075B40075B500758D
:10003600B60075AC0075AD0012057A12000E1206F8
:10004600F1789076AAC201750813750988C2032053
:10005600040281A0C2AF2003022143750F08E50FF9
:10006600C394404002210275AF21AF18EF54FFF54B
:10007600A6E517FF7E00EF54FFF5A7AF0F74002F1C
:10008600F582E43400F583E0FF8FAE75C7AA75C725
:100096005543A40175AF0075C7AA75C75543A4019A
:1000A600AF0F74002FF582E43400F583E0FFE5AE70
:1000B6006F600280FEE59FB4430280FEAF0F7400BE
:1000C6002FF582E43400F583E0FFE4FCFDFEE51540
:1000D6002FF515E5143EF514E5133DF513E5123C31
:1000E600F5120518E51870020517E518B51109E5AA
:1000F60017B51004C2038004050F01641204D9E584
:100106001554FFFFE5145400FEE5135400FDE512F7
:100116005400FC900048EFF0AF15AE14AD13AC12CE
:100126007808120653EF54FFFFEE5400FEED54001C
:10013600FDEC5400FC900049EFF01206B39000006D
:10014600E0FFEF1206660324A001EEA101B6A201AC
:1001560068A4018AA604C4AB0168AE0198B1000088
:1001660004991204D91206B3750800750900C20174
:1001760075C7AA75C755439F0175C7AA75C7554365
:10018600A50181991204D99000487427F01206B38C
:1001960081991204D9900048E522F0900049E521A2
:1001A600F090004AE4F090004BE4F01206B3819917
:1001B6001204D9900048E523F0900049E524F09018
:1001C600004AE525F090004B74FFF090004CE526C0
:1001D600F090004D74FFF090004E74FFF090004FC9
:1001E60074FFF01206B38199900008E0FF8F289003
:1001F6000009E0FF8F2990000AE0FF8F2A90000C8B
:10020600E0FF8F2BA2AF9200C2AF75C7AA75C75584
:10021600439F01A20092AFA2AF9200C2AF75C7AAD8
:1002260075C75543A504A20092AF75AFE275A60047
:1002360075A70075AEFF75C7AA75C75543A40175A6
:10024600AFE175A60075A7008528AE75C7AA75C764
:100256005543A4018529AE75A60175C7AA75C7556C
:1002660043A40175A602852AAE75C7AA75C755436C
:10027600A40175A604852BAE75C7AA75C75543A4F8
:1002860001A2AF9200C2AF75C7AA75C75553A5FBA9
:10029600A20092AF75AFC075A60075C7AA75C755FF
:1002A60043A40185AE2375A60175C7AA75C7554334
:1002B600A40185AE2475A60275C7AA75C75543A4C1
:1002C6000185AE2575A60475C7AA75C75543A40151
:1002D60085AE26A2AF9200C2AF75C7AA75C75553A1
:1002E6009FFEA20092AF1204D9900048E523F09039
:1002F6000049E524F090004AE525F090004B74FF94
:10030600F090004CE526F090004D74FFF090004E02
:1003160074FFF090004F74FFF01206B3819975C711
:10032600AA75C755439F0175C7AA75C75543A50149
:1003360075AEFF75AF22751700751800C3E51894E2
:1003460040E51794005034AF18EF75F080A4FFEF26
:1003560054FFF5A6E518AE177807C333CE33CED8CB
:10036600F9FFEEFF7E008FA775C7AA75C75543A490
:10037600010518E5187002051780C175150075147A
:1003860000751300751200751700751800751000BA
:1003960075110090000CE0FF7E008E108F1190000A
:1003A6000DE0FF7E00EF7F00FEEF4211EE4210D21D
:1003B60003750F10E50FC394404002815875AF21B5
:1003C600AF18EF54FFF5A6E517FF7E00EF54FFF5D3
:1003D600A7AF0F74002FF582E43400F583E0FF8F9A
:1003E600AE75C7AA75C75543A40175AF0075C7AAF0
:1003F60075C75543A401AF0F74002FF582E434008E
:10040600F583E0FFE5AE6F600280FEE59FB4430230
:1004160080FEAF0F74002FF582E43400F583E0FF11
:10042600E4FCFDFEE5152FF515E5143EF514E51380
:100436003DF513E5123CF5120518E518700205178F
:10044600E518B51109E517B51004C2038004050FB8
:1004560061BA1204D9E51554FFFFE5145400FEE510
:10046600135400FDE5125400FC900048EFF0AF1560
:10047600AE14AD13AC127808120653EF54FFFFEE1C
:100486005400FEED5400FDEC5400FC900049EFF0E2
:100496001206B3C204751600D2AF20012120020253
:1004A6000155E516C394405007E516D3940050094C
:1004B600E516D3944050020155751600015575C7CF
:1004C600AA75C755539FFD75C7AA75C755439F8023
:0204D60080FEA6
:0104D8002201
:030000000206D71E
:1006D7007800E4F6D8FD9000007FFF7E01E4F0A3E8
:0A06E700DFFCDEFA758190020026A8
:10065300E8600FECC313FCED13FDEE13FEEF13FF85
:03066300D8F122A9
:10066600D083D082F8E4937012740193700DA3A323
:1006760093F8740193F5828883E473740293686037
:06068600EFA3A3A380DF37
:00000001FF
